{
  "_format": "hh-sol-artifact-1",
  "contractName": "AddPost",
  "sourceName": "contracts/AddPost.sol",
  "abi": [
    {
      "inputs": [],
      "stateMutability": "nonpayable",
      "type": "constructor"
    },
    {
      "inputs": [
        {
          "internalType": "string",
          "name": "topic",
          "type": "string"
        }
      ],
      "name": "addPost",
      "outputs": [],
      "stateMutability": "nonpayable",
      "type": "function"
    },
    {
      "inputs": [],
      "name": "getAllPosts",
      "outputs": [
        {
          "components": [
            {
              "internalType": "uint32",
              "name": "id",
              "type": "uint32"
            },
            {
              "internalType": "address",
              "name": "creator_address",
              "type": "address"
            },
            {
              "internalType": "string",
              "name": "topic",
              "type": "string"
            }
          ],
          "internalType": "struct AddPost.PostItem[]",
          "name": "",
          "type": "tuple[]"
        }
      ],
      "stateMutability": "view",
      "type": "function"
    },
    {
      "inputs": [],
      "name": "getPostsByOwner",
      "outputs": [
        {
          "components": [
            {
              "internalType": "uint32",
              "name": "id",
              "type": "uint32"
            },
            {
              "internalType": "address",
              "name": "creator_address",
              "type": "address"
            },
            {
              "internalType": "string",
              "name": "topic",
              "type": "string"
            }
          ],
          "internalType": "struct AddPost.PostItem[]",
          "name": "",
          "type": "tuple[]"
        }
      ],
      "stateMutability": "view",
      "type": "function"
    },
    {
      "inputs": [
        {
          "internalType": "uint256",
          "name": "_index",
          "type": "uint256"
        }
      ],
      "name": "tip",
      "outputs": [],
      "stateMutability": "payable",
      "type": "function"
    }
  ],
  "bytecode": "0x608060405234801561001057600080fd5b50610f91806100206000396000f3fe60806040526004361061003f5760003560e01c80633056110014610044578063a63228191461006f578063dceffd7c14610098578063e8b69bc3146100c3575b600080fd5b34801561005057600080fd5b506100596100df565b6040516100669190610960565b60405180910390f35b34801561007b57600080fd5b5061009660048036038101906100919190610acb565b61024c565b005b3480156100a457600080fd5b506100ad610387565b6040516100ba9190610960565b60405180910390f35b6100dd60048036038101906100d89190610b4a565b61068c565b005b60606001805480602002602001604051908101604052809291908181526020016000905b8282101561024357838290600052602060002090600202016040518060600160405290816000820160009054906101000a900463ffffffff1663ffffffff1663ffffffff1681526020016000820160049054906101000a900473ffffffffffffffffffffffffffffffffffffffff1673ffffffffffffffffffffffffffffffffffffffff1673ffffffffffffffffffffffffffffffffffffffff1681526020016001820180546101b290610ba6565b80601f01602080910402602001604051908101604052809291908181526020018280546101de90610ba6565b801561022b5780601f106102005761010080835404028352916020019161022b565b820191906000526020600020905b81548152906001019060200180831161020e57829003601f168201915b50505050508152505081526020019060010190610103565b50505050905090565b6001604051806060016040528060008054906101000a900463ffffffff1663ffffffff1681526020013373ffffffffffffffffffffffffffffffffffffffff16815260200183815250908060018154018082558091505060019003906000526020600020906002020160009091909190915060008201518160000160006101000a81548163ffffffff021916908363ffffffff16021790555060208201518160000160046101000a81548173ffffffffffffffffffffffffffffffffffffffff021916908373ffffffffffffffffffffffffffffffffffffffff16021790555060408201518160010190816103419190610d83565b50505060008081819054906101000a900463ffffffff168092919061036590610e84565b91906101000a81548163ffffffff021916908363ffffffff1602179055505050565b60606000805b600180549050811015610435573373ffffffffffffffffffffffffffffffffffffffff16600182815481106103c5576103c4610eb0565b5b906000526020600020906002020160000160049054906101000a900473ffffffffffffffffffffffffffffffffffffffff1673ffffffffffffffffffffffffffffffffffffffff16036104225760018261041f9190610edf565b91505b808061042d90610f13565b91505061038d565b5060008167ffffffffffffffff811115610452576104516109a0565b5b60405190808252806020026020018201604052801561048b57816020015b610478610721565b8152602001906001900390816104705790505b50905060005b600180549050811015610683573373ffffffffffffffffffffffffffffffffffffffff16600182815481106104c9576104c8610eb0565b5b906000526020600020906002020160000160049054906101000a900473ffffffffffffffffffffffffffffffffffffffff1673ffffffffffffffffffffffffffffffffffffffff1603610670576001818154811061052a57610529610eb0565b5b90600052602060002090600202016040518060600160405290816000820160009054906101000a900463ffffffff1663ffffffff1663ffffffff1681526020016000820160049054906101000a900473ffffffffffffffffffffffffffffffffffffffff1673ffffffffffffffffffffffffffffffffffffffff1673ffffffffffffffffffffffffffffffffffffffff1681526020016001820180546105cf90610ba6565b80601f01602080910402602001604051908101604052809291908181526020018280546105fb90610ba6565b80156106485780601f1061061d57610100808354040283529160200191610648565b820191906000526020600020905b81548152906001019060200180831161062b57829003601f168201915b50505050508152505082828151811061066457610663610eb0565b5b60200260200101819052505b808061067b90610f13565b915050610491565b50809250505090565b6000600182815481106106a2576106a1610eb0565b5b906000526020600020906002020160000160049054906101000a900473ffffffffffffffffffffffffffffffffffffffff1690508073ffffffffffffffffffffffffffffffffffffffff166108fc349081150290604051600060405180830381858888f1935050505015801561071c573d6000803e3d6000fd5b505050565b6040518060600160405280600063ffffffff168152602001600073ffffffffffffffffffffffffffffffffffffffff168152602001606081525090565b600081519050919050565b600082825260208201905092915050565b6000819050602082019050919050565b600063ffffffff82169050919050565b6107a38161078a565b82525050565b600073ffffffffffffffffffffffffffffffffffffffff82169050919050565b60006107d4826107a9565b9050919050565b6107e4816107c9565b82525050565b600081519050919050565b600082825260208201905092915050565b60005b83811015610824578082015181840152602081019050610809565b60008484015250505050565b6000601f19601f8301169050919050565b600061084c826107ea565b61085681856107f5565b9350610866818560208601610806565b61086f81610830565b840191505092915050565b6000606083016000830151610892600086018261079a565b5060208301516108a560208601826107db565b50604083015184820360408601526108bd8282610841565b9150508091505092915050565b60006108d6838361087a565b905092915050565b6000602082019050919050565b60006108f68261075e565b6109008185610769565b9350836020820285016109128561077a565b8060005b8581101561094e578484038952815161092f85826108ca565b945061093a836108de565b925060208a01995050600181019050610916565b50829750879550505050505092915050565b6000602082019050818103600083015261097a81846108eb565b905092915050565b6000604051905090565b600080fd5b600080fd5b600080fd5b600080fd5b7f4e487b7100000000000000000000000000000000000000000000000000000000600052604160045260246000fd5b6109d882610830565b810181811067ffffffffffffffff821117156109f7576109f66109a0565b5b80604052505050565b6000610a0a610982565b9050610a1682826109cf565b919050565b600067ffffffffffffffff821115610a3657610a356109a0565b5b610a3f82610830565b9050602081019050919050565b82818337600083830152505050565b6000610a6e610a6984610a1b565b610a00565b905082815260208101848484011115610a8a57610a8961099b565b5b610a95848285610a4c565b509392505050565b600082601f830112610ab257610ab1610996565b5b8135610ac2848260208601610a5b565b91505092915050565b600060208284031215610ae157610ae061098c565b5b600082013567ffffffffffffffff811115610aff57610afe610991565b5b610b0b84828501610a9d565b91505092915050565b6000819050919050565b610b2781610b14565b8114610b3257600080fd5b50565b600081359050610b4481610b1e565b92915050565b600060208284031215610b6057610b5f61098c565b5b6000610b6e84828501610b35565b91505092915050565b7f4e487b7100000000000000000000000000000000000000000000000000000000600052602260045260246000fd5b60006002820490506001821680610bbe57607f821691505b602082108103610bd157610bd0610b77565b5b50919050565b60008190508160005260206000209050919050565b60006020601f8301049050919050565b600082821b905092915050565b600060088302610c397fffffffffffffffffffffffffffffffffffffffffffffffffffffffffffffffff82610bfc565b610c438683610bfc565b95508019841693508086168417925050509392505050565b6000819050919050565b6000610c80610c7b610c7684610b14565b610c5b565b610b14565b9050919050565b6000819050919050565b610c9a83610c65565b610cae610ca682610c87565b848454610c09565b825550505050565b600090565b610cc3610cb6565b610cce818484610c91565b505050565b5b81811015610cf257610ce7600082610cbb565b600181019050610cd4565b5050565b601f821115610d3757610d0881610bd7565b610d1184610bec565b81016020851015610d20578190505b610d34610d2c85610bec565b830182610cd3565b50505b505050565b600082821c905092915050565b6000610d5a60001984600802610d3c565b1980831691505092915050565b6000610d738383610d49565b9150826002028217905092915050565b610d8c826107ea565b67ffffffffffffffff811115610da557610da46109a0565b5b610daf8254610ba6565b610dba828285610cf6565b600060209050601f831160018114610ded5760008415610ddb578287015190505b610de58582610d67565b865550610e4d565b601f198416610dfb86610bd7565b60005b82811015610e2357848901518255600182019150602085019450602081019050610dfe565b86831015610e405784890151610e3c601f891682610d49565b8355505b6001600288020188555050505b505050505050565b7f4e487b7100000000000000000000000000000000000000000000000000000000600052601160045260246000fd5b6000610e8f8261078a565b915063ffffffff8203610ea557610ea4610e55565b5b600182019050919050565b7f4e487b7100000000000000000000000000000000000000000000000000000000600052603260045260246000fd5b6000610eea82610b14565b9150610ef583610b14565b9250828201905080821115610f0d57610f0c610e55565b5b92915050565b6000610f1e82610b14565b91507fffffffffffffffffffffffffffffffffffffffffffffffffffffffffffffffff8203610f5057610f4f610e55565b5b60018201905091905056fea2646970667358221220d84712b2ea5a2816233af23e5f4dedbad7ca6aae06b014f83ea47c2d7305c06f64736f6c63430008120033",
  "linkReferences": {},
  "deployedLinkReferences": {}
}