{
  "_format": "hh-sol-artifact-1",
  "contractName": "AddPost",
  "sourceName": "contracts/AddPost.sol",
  "abi": [
    {
      "inputs": [],
      "stateMutability": "nonpayable",
      "type": "constructor"
    },
    {
      "inputs": [
        {
          "internalType": "string",
          "name": "topic",
          "type": "string"
        }
      ],
      "name": "addPost",
      "outputs": [],
      "stateMutability": "nonpayable",
      "type": "function"
    },
    {
      "inputs": [],
      "name": "getAllPosts",
      "outputs": [
        {
          "components": [
            {
              "internalType": "uint32",
              "name": "id",
              "type": "uint32"
            },
            {
              "internalType": "address",
              "name": "creator_address",
              "type": "address"
            },
            {
              "internalType": "string",
              "name": "topic",
              "type": "string"
            }
          ],
          "internalType": "struct AddPost.PostItem[]",
          "name": "",
          "type": "tuple[]"
        }
      ],
      "stateMutability": "view",
      "type": "function"
    },
    {
      "inputs": [],
      "name": "getPostsByOwner",
      "outputs": [
        {
          "components": [
            {
              "internalType": "uint32",
              "name": "id",
              "type": "uint32"
            },
            {
              "internalType": "address",
              "name": "creator_address",
              "type": "address"
            },
            {
              "internalType": "string",
              "name": "topic",
              "type": "string"
            }
          ],
          "internalType": "struct AddPost.PostItem[]",
          "name": "",
          "type": "tuple[]"
        }
      ],
      "stateMutability": "view",
      "type": "function"
    }
  ],
  "bytecode": "0x608060405234801561001057600080fd5b50610e62806100206000396000f3fe608060405234801561001057600080fd5b50600436106100415760003560e01c80633056110014610046578063a632281914610064578063dceffd7c14610080575b600080fd5b61004e61009e565b60405161005b919061088a565b60405180910390f35b61007e600480360381019061007991906109f5565b61020b565b005b610088610346565b604051610095919061088a565b60405180910390f35b60606001805480602002602001604051908101604052809291908181526020016000905b8282101561020257838290600052602060002090600202016040518060600160405290816000820160009054906101000a900463ffffffff1663ffffffff1663ffffffff1681526020016000820160049054906101000a900473ffffffffffffffffffffffffffffffffffffffff1673ffffffffffffffffffffffffffffffffffffffff1673ffffffffffffffffffffffffffffffffffffffff16815260200160018201805461017190610a6d565b80601f016020809104026020016040519081016040528092919081815260200182805461019d90610a6d565b80156101ea5780601f106101bf576101008083540402835291602001916101ea565b820191906000526020600020905b8154815290600101906020018083116101cd57829003601f168201915b505050505081525050815260200190600101906100c2565b50505050905090565b6001604051806060016040528060008054906101000a900463ffffffff1663ffffffff1681526020013373ffffffffffffffffffffffffffffffffffffffff16815260200183815250908060018154018082558091505060019003906000526020600020906002020160009091909190915060008201518160000160006101000a81548163ffffffff021916908363ffffffff16021790555060208201518160000160046101000a81548173ffffffffffffffffffffffffffffffffffffffff021916908373ffffffffffffffffffffffffffffffffffffffff16021790555060408201518160010190816103009190610c54565b50505060008081819054906101000a900463ffffffff168092919061032490610d55565b91906101000a81548163ffffffff021916908363ffffffff1602179055505050565b60606000805b6001805490508110156103f4573373ffffffffffffffffffffffffffffffffffffffff166001828154811061038457610383610d81565b5b906000526020600020906002020160000160049054906101000a900473ffffffffffffffffffffffffffffffffffffffff1673ffffffffffffffffffffffffffffffffffffffff16036103e1576001826103de9190610db0565b91505b80806103ec90610de4565b91505061034c565b5060008167ffffffffffffffff811115610411576104106108ca565b5b60405190808252806020026020018201604052801561044a57816020015b61043761064b565b81526020019060019003908161042f5790505b50905060005b600180549050811015610642573373ffffffffffffffffffffffffffffffffffffffff166001828154811061048857610487610d81565b5b906000526020600020906002020160000160049054906101000a900473ffffffffffffffffffffffffffffffffffffffff1673ffffffffffffffffffffffffffffffffffffffff160361062f57600181815481106104e9576104e8610d81565b5b90600052602060002090600202016040518060600160405290816000820160009054906101000a900463ffffffff1663ffffffff1663ffffffff1681526020016000820160049054906101000a900473ffffffffffffffffffffffffffffffffffffffff1673ffffffffffffffffffffffffffffffffffffffff1673ffffffffffffffffffffffffffffffffffffffff16815260200160018201805461058e90610a6d565b80601f01602080910402602001604051908101604052809291908181526020018280546105ba90610a6d565b80156106075780601f106105dc57610100808354040283529160200191610607565b820191906000526020600020905b8154815290600101906020018083116105ea57829003601f168201915b50505050508152505082828151811061062357610622610d81565b5b60200260200101819052505b808061063a90610de4565b915050610450565b50809250505090565b6040518060600160405280600063ffffffff168152602001600073ffffffffffffffffffffffffffffffffffffffff168152602001606081525090565b600081519050919050565b600082825260208201905092915050565b6000819050602082019050919050565b600063ffffffff82169050919050565b6106cd816106b4565b82525050565b600073ffffffffffffffffffffffffffffffffffffffff82169050919050565b60006106fe826106d3565b9050919050565b61070e816106f3565b82525050565b600081519050919050565b600082825260208201905092915050565b60005b8381101561074e578082015181840152602081019050610733565b60008484015250505050565b6000601f19601f8301169050919050565b600061077682610714565b610780818561071f565b9350610790818560208601610730565b6107998161075a565b840191505092915050565b60006060830160008301516107bc60008601826106c4565b5060208301516107cf6020860182610705565b50604083015184820360408601526107e7828261076b565b9150508091505092915050565b600061080083836107a4565b905092915050565b6000602082019050919050565b600061082082610688565b61082a8185610693565b93508360208202850161083c856106a4565b8060005b85811015610878578484038952815161085985826107f4565b945061086483610808565b925060208a01995050600181019050610840565b50829750879550505050505092915050565b600060208201905081810360008301526108a48184610815565b905092915050565b6000604051905090565b600080fd5b600080fd5b600080fd5b600080fd5b7f4e487b7100000000000000000000000000000000000000000000000000000000600052604160045260246000fd5b6109028261075a565b810181811067ffffffffffffffff82111715610921576109206108ca565b5b80604052505050565b60006109346108ac565b905061094082826108f9565b919050565b600067ffffffffffffffff8211156109605761095f6108ca565b5b6109698261075a565b9050602081019050919050565b82818337600083830152505050565b600061099861099384610945565b61092a565b9050828152602081018484840111156109b4576109b36108c5565b5b6109bf848285610976565b509392505050565b600082601f8301126109dc576109db6108c0565b5b81356109ec848260208601610985565b91505092915050565b600060208284031215610a0b57610a0a6108b6565b5b600082013567ffffffffffffffff811115610a2957610a286108bb565b5b610a35848285016109c7565b91505092915050565b7f4e487b7100000000000000000000000000000000000000000000000000000000600052602260045260246000fd5b60006002820490506001821680610a8557607f821691505b602082108103610a9857610a97610a3e565b5b50919050565b60008190508160005260206000209050919050565b60006020601f8301049050919050565b600082821b905092915050565b600060088302610b007fffffffffffffffffffffffffffffffffffffffffffffffffffffffffffffffff82610ac3565b610b0a8683610ac3565b95508019841693508086168417925050509392505050565b6000819050919050565b6000819050919050565b6000610b51610b4c610b4784610b22565b610b2c565b610b22565b9050919050565b6000819050919050565b610b6b83610b36565b610b7f610b7782610b58565b848454610ad0565b825550505050565b600090565b610b94610b87565b610b9f818484610b62565b505050565b5b81811015610bc357610bb8600082610b8c565b600181019050610ba5565b5050565b601f821115610c0857610bd981610a9e565b610be284610ab3565b81016020851015610bf1578190505b610c05610bfd85610ab3565b830182610ba4565b50505b505050565b600082821c905092915050565b6000610c2b60001984600802610c0d565b1980831691505092915050565b6000610c448383610c1a565b9150826002028217905092915050565b610c5d82610714565b67ffffffffffffffff811115610c7657610c756108ca565b5b610c808254610a6d565b610c8b828285610bc7565b600060209050601f831160018114610cbe5760008415610cac578287015190505b610cb68582610c38565b865550610d1e565b601f198416610ccc86610a9e565b60005b82811015610cf457848901518255600182019150602085019450602081019050610ccf565b86831015610d115784890151610d0d601f891682610c1a565b8355505b6001600288020188555050505b505050505050565b7f4e487b7100000000000000000000000000000000000000000000000000000000600052601160045260246000fd5b6000610d60826106b4565b915063ffffffff8203610d7657610d75610d26565b5b600182019050919050565b7f4e487b7100000000000000000000000000000000000000000000000000000000600052603260045260246000fd5b6000610dbb82610b22565b9150610dc683610b22565b9250828201905080821115610dde57610ddd610d26565b5b92915050565b6000610def82610b22565b91507fffffffffffffffffffffffffffffffffffffffffffffffffffffffffffffffff8203610e2157610e20610d26565b5b60018201905091905056fea26469706673582212202bb67625f238f13e1279212bd46189791c1ea70a1450572d9dca61c96f43dd7764736f6c63430008120033",
  "linkReferences": {},
  "deployedLinkReferences": {}
}