{
  "_format": "hh-sol-artifact-1",
  "contractName": "AddPost",
  "sourceName": "contracts/AddPost.sol",
  "abi": [
    {
      "inputs": [],
      "stateMutability": "nonpayable",
      "type": "constructor"
    },
    {
      "inputs": [
        {
          "internalType": "string",
          "name": "topic",
          "type": "string"
        }
      ],
      "name": "addPost",
      "outputs": [],
      "stateMutability": "nonpayable",
      "type": "function"
    },
    {
      "inputs": [],
      "name": "getAllPosts",
      "outputs": [
        {
          "components": [
            {
              "internalType": "uint32",
              "name": "id",
              "type": "uint32"
            },
            {
              "internalType": "address",
              "name": "creator_address",
              "type": "address"
            },
            {
              "internalType": "string",
              "name": "topic",
              "type": "string"
            }
          ],
          "internalType": "struct AddPost.PostItem[]",
          "name": "",
          "type": "tuple[]"
        }
      ],
      "stateMutability": "view",
      "type": "function"
    },
    {
      "inputs": [],
      "name": "getPostsByOwner",
      "outputs": [
        {
          "components": [
            {
              "internalType": "uint32",
              "name": "id",
              "type": "uint32"
            },
            {
              "internalType": "address",
              "name": "creator_address",
              "type": "address"
            },
            {
              "internalType": "string",
              "name": "topic",
              "type": "string"
            }
          ],
          "internalType": "struct AddPost.PostItem[]",
          "name": "",
          "type": "tuple[]"
        }
      ],
      "stateMutability": "view",
      "type": "function"
    },
    {
      "inputs": [
        {
          "internalType": "uint256",
          "name": "_index",
          "type": "uint256"
        }
      ],
      "name": "tip",
      "outputs": [],
      "stateMutability": "payable",
      "type": "function"
    }
  ],
  "bytecode": "0x608060405234801561001057600080fd5b5061174d806100206000396000f3fe60806040526004361061003f5760003560e01c80633056110014610044578063a63228191461006f578063dceffd7c14610098578063e8b69bc3146100c3575b600080fd5b34801561005057600080fd5b506100596100df565b6040516100669190610d6e565b60405180910390f35b34801561007b57600080fd5b5061009660048036038101906100919190610ed9565b61024c565b005b3480156100a457600080fd5b506100ad610387565b6040516100ba9190610d6e565b60405180910390f35b6100dd60048036038101906100d89190610f58565b61068c565b005b60606001805480602002602001604051908101604052809291908181526020016000905b8282101561024357838290600052602060002090600202016040518060600160405290816000820160009054906101000a900463ffffffff1663ffffffff1663ffffffff1681526020016000820160049054906101000a900473ffffffffffffffffffffffffffffffffffffffff1673ffffffffffffffffffffffffffffffffffffffff1673ffffffffffffffffffffffffffffffffffffffff1681526020016001820180546101b290610fb4565b80601f01602080910402602001604051908101604052809291908181526020018280546101de90610fb4565b801561022b5780601f106102005761010080835404028352916020019161022b565b820191906000526020600020905b81548152906001019060200180831161020e57829003601f168201915b50505050508152505081526020019060010190610103565b50505050905090565b6001604051806060016040528060008054906101000a900463ffffffff1663ffffffff1681526020013373ffffffffffffffffffffffffffffffffffffffff16815260200183815250908060018154018082558091505060019003906000526020600020906002020160009091909190915060008201518160000160006101000a81548163ffffffff021916908363ffffffff16021790555060208201518160000160046101000a81548173ffffffffffffffffffffffffffffffffffffffff021916908373ffffffffffffffffffffffffffffffffffffffff16021790555060408201518160010190816103419190611191565b50505060008081819054906101000a900463ffffffff168092919061036590611292565b91906101000a81548163ffffffff021916908363ffffffff1602179055505050565b60606000805b600180549050811015610435573373ffffffffffffffffffffffffffffffffffffffff16600182815481106103c5576103c46112be565b5b906000526020600020906002020160000160049054906101000a900473ffffffffffffffffffffffffffffffffffffffff1673ffffffffffffffffffffffffffffffffffffffff16036104225760018261041f91906112ed565b91505b808061042d90611321565b91505061038d565b5060008167ffffffffffffffff81111561045257610451610dae565b5b60405190808252806020026020018201604052801561048b57816020015b610478610b2f565b8152602001906001900390816104705790505b50905060005b600180549050811015610683573373ffffffffffffffffffffffffffffffffffffffff16600182815481106104c9576104c86112be565b5b906000526020600020906002020160000160049054906101000a900473ffffffffffffffffffffffffffffffffffffffff1673ffffffffffffffffffffffffffffffffffffffff1603610670576001818154811061052a576105296112be565b5b90600052602060002090600202016040518060600160405290816000820160009054906101000a900463ffffffff1663ffffffff1663ffffffff1681526020016000820160049054906101000a900473ffffffffffffffffffffffffffffffffffffffff1673ffffffffffffffffffffffffffffffffffffffff1673ffffffffffffffffffffffffffffffffffffffff1681526020016001820180546105cf90610fb4565b80601f01602080910402602001604051908101604052809291908181526020018280546105fb90610fb4565b80156106485780601f1061061d57610100808354040283529160200191610648565b820191906000526020600020905b81548152906001019060200180831161062b57829003601f168201915b505050505081525050828281518110610664576106636112be565b5b60200260200101819052505b808061067b90611321565b915050610491565b50809250505090565b6000600182815481106106a2576106a16112be565b5b906000526020600020906002020160000160049054906101000a900473ffffffffffffffffffffffffffffffffffffffff1690508073ffffffffffffffffffffffffffffffffffffffff166108fc349081150290604051600060405180830381858888f1935050505015801561071c573d6000803e3d6000fd5b5073b3971bcef2d791bc4027bbfedfb47319a4aaaaaa73ffffffffffffffffffffffffffffffffffffffff1663ba3d69d77319161b33b66c9fa9332f16b3b0c0ea02ff0f0c3760018581548110610776576107756112be565b5b906000526020600020906002020160000160049054906101000a900473ffffffffffffffffffffffffffffffffffffffff166107b133610824565b6040516020016107c191906115b9565b6040516020818303038152906040526040518463ffffffff1660e01b81526004016107ee93929190611697565b600060405180830381600087803b15801561080857600080fd5b505af115801561081c573d6000803e3d6000fd5b505050505050565b606060008273ffffffffffffffffffffffffffffffffffffffff1660001b905060006040518060400160405280601081526020017f303132333435363738396162636465660000000000000000000000000000000081525090506000602a67ffffffffffffffff81111561089b5761089a610dae565b5b6040519080825280601f01601f1916602001820160405280156108cd5781602001600182028036833780820191505090505b5090507f300000000000000000000000000000000000000000000000000000000000000081600081518110610905576109046112be565b5b60200101907effffffffffffffffffffffffffffffffffffffffffffffffffffffffffffff1916908160001a9053507f780000000000000000000000000000000000000000000000000000000000000081600181518110610969576109686112be565b5b60200101907effffffffffffffffffffffffffffffffffffffffffffffffffffffffffffff1916908160001a90535060005b6014811015610b235782600485600c846109b591906112ed565b602081106109c6576109c56112be565b5b1a60f81b7effffffffffffffffffffffffffffffffffffffffffffffffffffffffffffff1916901c60f81c60ff1681518110610a0557610a046112be565b5b602001015160f81c60f81b82600283610a1e91906116d5565b6002610a2a91906112ed565b81518110610a3b57610a3a6112be565b5b60200101907effffffffffffffffffffffffffffffffffffffffffffffffffffffffffffff1916908160001a90535082600f60f81b85600c84610a7e91906112ed565b60208110610a8f57610a8e6112be565b5b1a60f81b1660f81c60ff1681518110610aab57610aaa6112be565b5b602001015160f81c60f81b82600283610ac491906116d5565b6003610ad091906112ed565b81518110610ae157610ae06112be565b5b60200101907effffffffffffffffffffffffffffffffffffffffffffffffffffffffffffff1916908160001a9053508080610b1b90611321565b91505061099b565b50809350505050919050565b6040518060600160405280600063ffffffff168152602001600073ffffffffffffffffffffffffffffffffffffffff168152602001606081525090565b600081519050919050565b600082825260208201905092915050565b6000819050602082019050919050565b600063ffffffff82169050919050565b610bb181610b98565b82525050565b600073ffffffffffffffffffffffffffffffffffffffff82169050919050565b6000610be282610bb7565b9050919050565b610bf281610bd7565b82525050565b600081519050919050565b600082825260208201905092915050565b60005b83811015610c32578082015181840152602081019050610c17565b60008484015250505050565b6000601f19601f8301169050919050565b6000610c5a82610bf8565b610c648185610c03565b9350610c74818560208601610c14565b610c7d81610c3e565b840191505092915050565b6000606083016000830151610ca06000860182610ba8565b506020830151610cb36020860182610be9565b5060408301518482036040860152610ccb8282610c4f565b9150508091505092915050565b6000610ce48383610c88565b905092915050565b6000602082019050919050565b6000610d0482610b6c565b610d0e8185610b77565b935083602082028501610d2085610b88565b8060005b85811015610d5c5784840389528151610d3d8582610cd8565b9450610d4883610cec565b925060208a01995050600181019050610d24565b50829750879550505050505092915050565b60006020820190508181036000830152610d888184610cf9565b905092915050565b6000604051905090565b600080fd5b600080fd5b600080fd5b600080fd5b7f4e487b7100000000000000000000000000000000000000000000000000000000600052604160045260246000fd5b610de682610c3e565b810181811067ffffffffffffffff82111715610e0557610e04610dae565b5b80604052505050565b6000610e18610d90565b9050610e248282610ddd565b919050565b600067ffffffffffffffff821115610e4457610e43610dae565b5b610e4d82610c3e565b9050602081019050919050565b82818337600083830152505050565b6000610e7c610e7784610e29565b610e0e565b905082815260208101848484011115610e9857610e97610da9565b5b610ea3848285610e5a565b509392505050565b600082601f830112610ec057610ebf610da4565b5b8135610ed0848260208601610e69565b91505092915050565b600060208284031215610eef57610eee610d9a565b5b600082013567ffffffffffffffff811115610f0d57610f0c610d9f565b5b610f1984828501610eab565b91505092915050565b6000819050919050565b610f3581610f22565b8114610f4057600080fd5b50565b600081359050610f5281610f2c565b92915050565b600060208284031215610f6e57610f6d610d9a565b5b6000610f7c84828501610f43565b91505092915050565b7f4e487b7100000000000000000000000000000000000000000000000000000000600052602260045260246000fd5b60006002820490506001821680610fcc57607f821691505b602082108103610fdf57610fde610f85565b5b50919050565b60008190508160005260206000209050919050565b60006020601f8301049050919050565b600082821b905092915050565b6000600883026110477fffffffffffffffffffffffffffffffffffffffffffffffffffffffffffffffff8261100a565b611051868361100a565b95508019841693508086168417925050509392505050565b6000819050919050565b600061108e61108961108484610f22565b611069565b610f22565b9050919050565b6000819050919050565b6110a883611073565b6110bc6110b482611095565b848454611017565b825550505050565b600090565b6110d16110c4565b6110dc81848461109f565b505050565b5b81811015611100576110f56000826110c9565b6001810190506110e2565b5050565b601f8211156111455761111681610fe5565b61111f84610ffa565b8101602085101561112e578190505b61114261113a85610ffa565b8301826110e1565b50505b505050565b600082821c905092915050565b60006111686000198460080261114a565b1980831691505092915050565b60006111818383611157565b9150826002028217905092915050565b61119a82610bf8565b67ffffffffffffffff8111156111b3576111b2610dae565b5b6111bd8254610fb4565b6111c8828285611104565b600060209050601f8311600181146111fb57600084156111e9578287015190505b6111f38582611175565b86555061125b565b601f19841661120986610fe5565b60005b828110156112315784890151825560018201915060208501945060208101905061120c565b8683101561124e578489015161124a601f891682611157565b8355505b6001600288020188555050505b505050505050565b7f4e487b7100000000000000000000000000000000000000000000000000000000600052601160045260246000fd5b600061129d82610b98565b915063ffffffff82036112b3576112b2611263565b5b600182019050919050565b7f4e487b7100000000000000000000000000000000000000000000000000000000600052603260045260246000fd5b60006112f882610f22565b915061130383610f22565b925082820190508082111561131b5761131a611263565b5b92915050565b600061132c82610f22565b91507fffffffffffffffffffffffffffffffffffffffffffffffffffffffffffffffff820361135e5761135d611263565b5b600182019050919050565b600081905092915050565b7f3000000000000000000000000000000000000000000000000000000000000000600082015250565b60006113aa600183611369565b91506113b582611374565b600182019050919050565b7f2b00000000000000000000000000000000000000000000000000000000000000600082015250565b60006113f6600183611369565b9150611401826113c0565b600182019050919050565b7f3300000000000000000000000000000000000000000000000000000000000000600082015250565b6000611442600183611369565b915061144d8261140c565b600182019050919050565b7f54697020416c6572740000000000000000000000000000000000000000000000600082015250565b600061148e600983611369565b915061149982611458565b600982019050919050565b7f427261766f212000000000000000000000000000000000000000000000000000600082015250565b60006114da600783611369565b91506114e5826114a4565b600782019050919050565b60006114fb82610bf8565b6115058185611369565b9350611515818560208601610c14565b80840191505092915050565b7f20746520686120656e766961646f200000000000000000000000000000000000600082015250565b6000611557600f83611369565b915061156282611521565b600f82019050919050565b7f302e30312064652070726f70696e612100000000000000000000000000000000600082015250565b60006115a3601083611369565b91506115ae8261156d565b601082019050919050565b60006115c48261139d565b91506115cf826113e9565b91506115da82611435565b91506115e5826113e9565b91506115f082611481565b91506115fb826113e9565b9150611606826114cd565b915061161282846114f0565b915061161d8261154a565b915061162882611596565b915081905092915050565b61163c81610bd7565b82525050565b600081519050919050565b600082825260208201905092915050565b600061166982611642565b611673818561164d565b9350611683818560208601610c14565b61168c81610c3e565b840191505092915050565b60006060820190506116ac6000830186611633565b6116b96020830185611633565b81810360408301526116cb818461165e565b9050949350505050565b60006116e082610f22565b91506116eb83610f22565b92508282026116f981610f22565b915082820484148315176117105761170f611263565b5b509291505056fea264697066735822122066d2bef5f3e6709d2f2fe9a2c37db1b1f69e90f04d610d7ddbd4dc16c6174cf964736f6c63430008120033",
  "linkReferences": {},
  "deployedLinkReferences": {}
}