{
  "_format": "hh-sol-artifact-1",
  "contractName": "Wikiw3b",
  "sourceName": "contracts/WikiW3b.sol",
  "abi": [
    {
      "inputs": [],
      "stateMutability": "nonpayable",
      "type": "constructor"
    },
    {
      "inputs": [
        {
          "internalType": "string",
          "name": "content",
          "type": "string"
        },
        {
          "internalType": "string",
          "name": "comments",
          "type": "string"
        }
      ],
      "name": "addWikiw3b",
      "outputs": [],
      "stateMutability": "nonpayable",
      "type": "function"
    },
    {
      "inputs": [],
      "name": "getAllWikiw3bs",
      "outputs": [
        {
          "components": [
            {
              "internalType": "uint32",
              "name": "id",
              "type": "uint32"
            },
            {
              "internalType": "address",
              "name": "creator_address",
              "type": "address"
            },
            {
              "internalType": "string",
              "name": "content",
              "type": "string"
            },
            {
              "internalType": "string",
              "name": "comments",
              "type": "string"
            }
          ],
          "internalType": "struct Wikiw3b.Wikiw3bItem[]",
          "name": "",
          "type": "tuple[]"
        }
      ],
      "stateMutability": "view",
      "type": "function"
    },
    {
      "inputs": [],
      "name": "getWikiw3bsByOwner",
      "outputs": [
        {
          "components": [
            {
              "internalType": "uint32",
              "name": "id",
              "type": "uint32"
            },
            {
              "internalType": "address",
              "name": "creator_address",
              "type": "address"
            },
            {
              "internalType": "string",
              "name": "content",
              "type": "string"
            },
            {
              "internalType": "string",
              "name": "comments",
              "type": "string"
            }
          ],
          "internalType": "struct Wikiw3b.Wikiw3bItem[]",
          "name": "",
          "type": "tuple[]"
        }
      ],
      "stateMutability": "view",
      "type": "function"
    }
  ],
  "bytecode": "0x608060405234801561001057600080fd5b50610ff3806100206000396000f3fe608060405234801561001057600080fd5b50600436106100415760003560e01c8063978660d914610046578063c398dbd214610062578063c72d385014610080575b600080fd5b610060600480360381019061005b919061092a565b61009e565b005b61006a6101f6565b6040516100779190610bad565b60405180910390f35b6100886103f5565b6040516100959190610bad565b60405180910390f35b6001604051806080016040528060008054906101000a900463ffffffff1663ffffffff1681526020013373ffffffffffffffffffffffffffffffffffffffff16815260200184815260200183815250908060018154018082558091505060019003906000526020600020906003020160009091909190915060008201518160000160006101000a81548163ffffffff021916908363ffffffff16021790555060208201518160000160046101000a81548173ffffffffffffffffffffffffffffffffffffffff021916908373ffffffffffffffffffffffffffffffffffffffff16021790555060408201518160010190816101999190610de5565b5060608201518160020190816101af9190610de5565b50505060008081819054906101000a900463ffffffff16809291906101d390610ee6565b91906101000a81548163ffffffff021916908363ffffffff160217905550505050565b60606001805480602002602001604051908101604052809291908181526020016000905b828210156103ec57838290600052602060002090600302016040518060800160405290816000820160009054906101000a900463ffffffff1663ffffffff1663ffffffff1681526020016000820160049054906101000a900473ffffffffffffffffffffffffffffffffffffffff1673ffffffffffffffffffffffffffffffffffffffff1673ffffffffffffffffffffffffffffffffffffffff1681526020016001820180546102c990610bfe565b80601f01602080910402602001604051908101604052809291908181526020018280546102f590610bfe565b80156103425780601f1061031757610100808354040283529160200191610342565b820191906000526020600020905b81548152906001019060200180831161032557829003601f168201915b5050505050815260200160028201805461035b90610bfe565b80601f016020809104026020016040519081016040528092919081815260200182805461038790610bfe565b80156103d45780601f106103a9576101008083540402835291602001916103d4565b820191906000526020600020905b8154815290600101906020018083116103b757829003601f168201915b5050505050815250508152602001906001019061021a565b50505050905090565b60606000805b6001805490508110156104a3573373ffffffffffffffffffffffffffffffffffffffff166001828154811061043357610432610f12565b5b906000526020600020906003020160000160049054906101000a900473ffffffffffffffffffffffffffffffffffffffff1673ffffffffffffffffffffffffffffffffffffffff16036104905760018261048d9190610f41565b91505b808061049b90610f75565b9150506103fb565b5060008167ffffffffffffffff8111156104c0576104bf6107ff565b5b6040519080825280602002602001820160405280156104f957816020015b6104e661078c565b8152602001906001900390816104de5790505b50905060005b600180549050811015610783573373ffffffffffffffffffffffffffffffffffffffff166001828154811061053757610536610f12565b5b906000526020600020906003020160000160049054906101000a900473ffffffffffffffffffffffffffffffffffffffff1673ffffffffffffffffffffffffffffffffffffffff1603610770576001818154811061059857610597610f12565b5b90600052602060002090600302016040518060800160405290816000820160009054906101000a900463ffffffff1663ffffffff1663ffffffff1681526020016000820160049054906101000a900473ffffffffffffffffffffffffffffffffffffffff1673ffffffffffffffffffffffffffffffffffffffff1673ffffffffffffffffffffffffffffffffffffffff16815260200160018201805461063d90610bfe565b80601f016020809104026020016040519081016040528092919081815260200182805461066990610bfe565b80156106b65780601f1061068b576101008083540402835291602001916106b6565b820191906000526020600020905b81548152906001019060200180831161069957829003601f168201915b505050505081526020016002820180546106cf90610bfe565b80601f01602080910402602001604051908101604052809291908181526020018280546106fb90610bfe565b80156107485780601f1061071d57610100808354040283529160200191610748565b820191906000526020600020905b81548152906001019060200180831161072b57829003601f168201915b50505050508152505082828151811061076457610763610f12565b5b60200260200101819052505b808061077b90610f75565b9150506104ff565b50809250505090565b6040518060800160405280600063ffffffff168152602001600073ffffffffffffffffffffffffffffffffffffffff16815260200160608152602001606081525090565b6000604051905090565b600080fd5b600080fd5b600080fd5b600080fd5b6000601f19601f8301169050919050565b7f4e487b7100000000000000000000000000000000000000000000000000000000600052604160045260246000fd5b610837826107ee565b810181811067ffffffffffffffff82111715610856576108556107ff565b5b80604052505050565b60006108696107d0565b9050610875828261082e565b919050565b600067ffffffffffffffff821115610895576108946107ff565b5b61089e826107ee565b9050602081019050919050565b82818337600083830152505050565b60006108cd6108c88461087a565b61085f565b9050828152602081018484840111156108e9576108e86107e9565b5b6108f48482856108ab565b509392505050565b600082601f830112610911576109106107e4565b5b81356109218482602086016108ba565b91505092915050565b60008060408385031215610941576109406107da565b5b600083013567ffffffffffffffff81111561095f5761095e6107df565b5b61096b858286016108fc565b925050602083013567ffffffffffffffff81111561098c5761098b6107df565b5b610998858286016108fc565b9150509250929050565b600081519050919050565b600082825260208201905092915050565b6000819050602082019050919050565b600063ffffffff82169050919050565b6109e7816109ce565b82525050565b600073ffffffffffffffffffffffffffffffffffffffff82169050919050565b6000610a18826109ed565b9050919050565b610a2881610a0d565b82525050565b600081519050919050565b600082825260208201905092915050565b60005b83811015610a68578082015181840152602081019050610a4d565b60008484015250505050565b6000610a7f82610a2e565b610a898185610a39565b9350610a99818560208601610a4a565b610aa2816107ee565b840191505092915050565b6000608083016000830151610ac560008601826109de565b506020830151610ad86020860182610a1f565b5060408301518482036040860152610af08282610a74565b91505060608301518482036060860152610b0a8282610a74565b9150508091505092915050565b6000610b238383610aad565b905092915050565b6000602082019050919050565b6000610b43826109a2565b610b4d81856109ad565b935083602082028501610b5f856109be565b8060005b85811015610b9b5784840389528151610b7c8582610b17565b9450610b8783610b2b565b925060208a01995050600181019050610b63565b50829750879550505050505092915050565b60006020820190508181036000830152610bc78184610b38565b905092915050565b7f4e487b7100000000000000000000000000000000000000000000000000000000600052602260045260246000fd5b60006002820490506001821680610c1657607f821691505b602082108103610c2957610c28610bcf565b5b50919050565b60008190508160005260206000209050919050565b60006020601f8301049050919050565b600082821b905092915050565b600060088302610c917fffffffffffffffffffffffffffffffffffffffffffffffffffffffffffffffff82610c54565b610c9b8683610c54565b95508019841693508086168417925050509392505050565b6000819050919050565b6000819050919050565b6000610ce2610cdd610cd884610cb3565b610cbd565b610cb3565b9050919050565b6000819050919050565b610cfc83610cc7565b610d10610d0882610ce9565b848454610c61565b825550505050565b600090565b610d25610d18565b610d30818484610cf3565b505050565b5b81811015610d5457610d49600082610d1d565b600181019050610d36565b5050565b601f821115610d9957610d6a81610c2f565b610d7384610c44565b81016020851015610d82578190505b610d96610d8e85610c44565b830182610d35565b50505b505050565b600082821c905092915050565b6000610dbc60001984600802610d9e565b1980831691505092915050565b6000610dd58383610dab565b9150826002028217905092915050565b610dee82610a2e565b67ffffffffffffffff811115610e0757610e066107ff565b5b610e118254610bfe565b610e1c828285610d58565b600060209050601f831160018114610e4f5760008415610e3d578287015190505b610e478582610dc9565b865550610eaf565b601f198416610e5d86610c2f565b60005b82811015610e8557848901518255600182019150602085019450602081019050610e60565b86831015610ea25784890151610e9e601f891682610dab565b8355505b6001600288020188555050505b505050505050565b7f4e487b7100000000000000000000000000000000000000000000000000000000600052601160045260246000fd5b6000610ef1826109ce565b915063ffffffff8203610f0757610f06610eb7565b5b600182019050919050565b7f4e487b7100000000000000000000000000000000000000000000000000000000600052603260045260246000fd5b6000610f4c82610cb3565b9150610f5783610cb3565b9250828201905080821115610f6f57610f6e610eb7565b5b92915050565b6000610f8082610cb3565b91507fffffffffffffffffffffffffffffffffffffffffffffffffffffffffffffffff8203610fb257610fb1610eb7565b5b60018201905091905056fea2646970667358221220a95575f469e3c40ea0632082edeeae63fed7b366a198551cb42aaaabcaaa103964736f6c63430008120033",
  "linkReferences": {},
  "deployedLinkReferences": {}
}